:020000040800F2
:10000000F8EF092051D00208074F0208F54E020808
:10001000094F0208194F0208294F0208000000008A
:10002000000000000000000000000000394F02083E
:100030003B4F020800000000055E02083D5E02081A
:10004000E5CE0208854F0208914F0208994F020839
:100050009DC30208E5CE0208494F0208CB4F0208B3
:100060004F4F0208554F02085B4F02086D7E020891
:100070007D7E02088D7E02089D7E0208AD7E02080C
:10008000BD7E0208CD7E0208E5CE0208E5CE02085C
:10009000E5CE0208E5CE0208E5CE0208614F02086F
:1000A000AD4F0208B34F0208C54F02081D500208A9
:1000B00023500208295002082F50020883500208DA
:1000C00089500208E5CE0208E5CE0208E5CE020816
:1000D000E5CE0208655002086B5002087150020814
:1000E000D14F02088B4F0208E5CE0208E5CE020888
:1000F00059500208E5CE02085F50020800000000D7
:10010000E5CE02080550020835500208E5CE020887
:10011000775002087D5002084D50020853500208E3
:10012000DD7E0208ED7E0208FD7E02080D7F0208DA
:100130001D7F0208E5CE0208E5CE0208E5CE0208E2
:10014000E5CE0208E5CE0208E5CE02083D4F0208E2
:100150002D7F02083D7F0208E5CE0208E5CE0208A9
:100160008F50020895500208D94F0208E5CE0208C8
:10017000E5CE0208E5CE0208F94F020800000000B3
:10018000E5CE0208E5CE0208E5CE0208E5CE02087B
:10019000E5CE020811500208000000000000000037
:1001A0000000000000000000F54F0208FD4F0208AB
:0C01B00001500208E5CE0208E5CE02086E
:1001C000024B1A690260186100207047A4A7002042
:1001D000024B1A6912681A61704700BFA4A7002079
:1001E000C460056146618761C0F81C80C0F820903A
:1001F000C0F824A0C0F828B0C0F82CD080ED0C8B3B
:1002000080ED0E9B80ED10ABC0F808E0FFF7D8BF83
:10021000104A08B513690BB924F0D4FB196858606B
:1002200011611846C468056946698769D0F81C8061
:10023000D0F82090D0F824A0D0F828B0D0F82CD056
:1002400090ED0C8B90ED0E9B90ED10ABD0F808E08C
:1002500001207047A4A7002010B50021044600F03B
:100260009FFA18B914B120460DF022F910BD0021F3
:1002700000F096BA10B50121044600F091FA18B9C1
:1002800014B120460DF014F910BDFFF7E5BF10B50D
:1002900001220C4600F0D0FB18B914B120460DF035
:1002A00007F910BD00F0C8BB00F058BB2DE9F047BE
:1002B0002B4C002526464FF0030AD4F868E20021B3
:1002C000013143189A0803F003031EF802205B0073
:1002D00042FA03F303F00303022BF1D0D4F8743293
:1002E00009018A0803EB001001B3043850F8041F19
:1002F0000B0719D1D4F87432994215D3CB1AD6F81A
:1003000078724FEA931C1B0903F0030EB9424FEABF
:100310004E0E09D2D6F8689219F80C8048FA0EF100
:1003200001F00301012908D0013ADFD1ADB1013D4F
:1003300005F5A07334F81300BFE70AFA0EFE4EEA83
:10034000080805F5A07E3F2D09F80C809ABF0135FD
:1003500026F81E30C6F87C12E6E7BDE8F08700BF3D
:10036000A4A700202DE9F04F394FD7F86C02800088
:1003700083B021D00025AC46B9464FF0030A06E011
:10038000032B5AD0012B1AD00135A84214D9AE083C
:10039000D7F8682205F00304915D640041FA04F384
:1003A00003F00303022B02EB060EE9D1BCF1000FB0
:1003B00037D10135A842EAD803B0BDE8F08F4FEA43
:1003C000D50BD9F8702212F80BC005F007084CFACB
:1003D00008F0C3075A4424D52801D9F874120B58E1
:1003E000084493B16A46B2210CF098FB009A3AB1E6
:1003F0000DF07AFA9DE803000DF05CFA0DF08CFA2E
:10040000D7F8702212F80BC05A44012303FA08F3FC
:100410002CEA030C82F800C0D7F86832995D03EB30
:10042000060E0AFA04F321EA03018EF80010D7F849
:100430006C024FF0010C8000A6E70223A34021EAE2
:1004400003019155D9F86C024FF0000C80009BE736
:10045000A4A70020F8B521F00F073C1A164A174D43
:10046000E400A2FB0434640A0319A7EB841E2246AD
:1004700000211E46C5F87032C5F874E2C5F868025E
:10048000C5F86C42C5F8787220F000F8A200073277
:10049000D208002130461FF0F9FF002301214FF060
:1004A000FF32A5F80213C5F80823C5F80C33A5F8E8
:1004B0000033C5F80433F8BDF32C23FAA4A70020B9
:1004C000034AB2F800330133A2F80033704700BF8B
:1004D000A4A70020034AB2F80033013BA2F800337E
:1004E000704700BFA4A70020034BB3F800030030FF
:1004F00018BF0120704700BFA4A700202DE9F041DC
:100500001D4DB5F8003300220133A5F80033C5F8BE
:100510000423C5F87C222C1D05F512762F464FF0DA
:10052000030854F8043F1A0719D1D5F8740283421E
:1005300015D3181AD7F878124FEA901E000900F068
:1005400003028B424FEA420209D2D7F868C21CF874
:100550000E1041FA02F303F00303012B03D0B4425F
:10056000DFD1BDE8F08108FA02F319430CF80E1050
:10057000FFF79CFEF3E700BFA4A7002099B32DE985
:10058000F041194F0E46051F00244FF0030855F89F
:10059000043F1A0704F1010419D1D7F87402834209
:1005A00015D3181AD7F878124FEA901E000900F0F8
:1005B00003028B424FEA420209D2D7F868C21CF804
:1005C0000E1041FA02F303F00303012B03D0B442EF
:1005D000DDD1BDE8F08108FA02F319430CF80E10E2
:1005E000FFF764FEF3E77047A4A70020F8B51B4FA0
:1005F000D7F87C6200253C461EB3D7F86C02C7F8DA
:100600007C52800027D0002602E00136864214D2B8
:10061000B308D7F8681206F00302CB5C520013410E
:1006200003F00303032BF0D13046FFF73FFED4F86D
:100630006C02013680008642EAD3D7F87C62002E35
:10064000DBD1FFF78FFEB7F80033C7F80C63013B2F
:10065000A7F80033F8BD0646F3E700BFA4A70020C3
:1006600038B5094CB4F8003300250133A4F8003341
:10067000C4F87C52FFF776FEB4F80033C4F80C538C
:10068000013BA4F8003338BDA4A70020434BD3F8A6
:100690007412D3F878222DE9F04F521A0025D3F8BE
:1006A0006892D3F86C32856080E82400C5600561EB
:1006B0004561856199F800B04FEA83082E46AC4643
:1006C000AA46AE4629462A462F467F004BFA07FB2C
:1006D0000BF00303012B31D03FD3022B02D10136A3
:1006E000466001310132C2EB0804B4FA84F46409B3
:1006F00064B9930802F0030719F803B07B004BFAC2
:1007000003F313F0030301D0012BDED101292CD018
:1007100002292ED0A94284BF81610D4694B9012BD4
:100720004FEA920329D019F803B002F003077F00C3
:100730004BFA07FB0BF00303012BCDD101364660CA
:100740001946CFE7D64501D9C0F80CE036014FEA8B
:100750000C1346608360BDE8F08F0CF1010CC0F80B
:1007600008C00EF1010E0021BCE7076901370761DF
:10077000D0E7476901374761CCE7D64505D8A6469B
:1007800019F803B002F003079FE7C0F80CE0F24647
:1007900019F803B0A64602F0030796E7A4A70020C5
:1007A0000F302DE9F84F050901F0010457D06A4ECA
:1007B000B6F80033002B52D1B6F80223002A51D1EB
:1007C000D6F80C13D6F86CE2714538BF4FF0010C27
:1007D00045D2D6F86872002378181AE001339D429A
:1007E0004FD912F00C0F1ED101339D4240F2A78069
:1007F00012F0300F1CD101339D4240F2A38012F061
:10080000C00F1AD101339D4240F29F8001317145E2
:1008100018D210F8012B12F0030FDFD012F00C0FDA
:100820004FF00003E0D012F0300F4FF00003E2D0A1
:1008300012F0C00F4FF00003E4D0013171454FF0CA
:100840000003E6D3BCF1000F09D129F083F9D6F8F3
:100850000C13D6F86CE271454FF0010CB9D30020AF
:10086000BDE8F88FD6F80413D6F8082391426FD26A
:10087000D6F80C13D6F86CE2714538BF9C46A8D365
:10088000E3E78900C3EB010A012B0AF1010801F13A
:10089000010C08BF4FEA9C034FEA980208BFC6F854
:1008A0000C3308F003094FEA490917F802E0012068
:1008B00000FA09F00AF1020340EA0E009942B85426
:1008C00028BF4FF0020910D34FEA930ED6F86822E2
:1008D00003F0030712F80E007F0009FA07F701334F
:1008E0003843994202F80E00EED2D6F874B2D6F828
:1008F0000433DFF864904FEA081AC8EB0C020BEBE4
:100900000A071D44120138460021C6F804531FF09F
:10091000BDFD14B93846BDE8F88F0023D9F8704200
:100920004BF80A304FEAD8010123625C08F007084F
:1009300003FA08F3134363543846BDE8F88F89007F
:1009400001319FE7890002319CE78900033199E773
:1009500029F000F934E700BFA4A70020F0B41C4E32
:10096000B6F800338BBB80B3D6F87432D6F8705229
:10097000C01AC40901092A5D01F007070123BB4021
:1009800022EA03032B55D6F80C33D6F868428009C7
:10099000984238BFC6F80C03225C8D0801F00303AF
:1009A00003275B0007FA03F322EA030262550131D1
:1009B000D6F868428D0801F00303625D580042FAE0
:1009C00000F000F003000228EBD0F0BC704700BF3D
:1009D000A4A70020034610F00F0029D1154AD2F831
:1009E00074128B4214D310B4D2F87842A3420DD2C1
:1009F0005B1AD2F868429A091909A35C01F0030254
:100A00005200134103F00303012B02D05DF8044BA5
:100A1000704701300B189A0803F00303A25C5B00D7
:100A200042FA03F303F00303022BF2D00001EDE7D7
:100A300000207047A4A700202DE9F04706460028B3
:100A400000F00B818A4DB5F80033002952D0002BFD
:100A500040F08280D5F87472D5F86C02F71B3F091C
:100A600007F1010E800001F10F0470454FEA1414E4
:100A700040F2F980D5F868929C464FF001084FEAA1
:100A80009E030EF0030A19F803304FEA4A0A43FAAC
:100A90000AF303F00303022B61D02BB90CF1010C14
:100AA0000CEB08039C425CD8444500F081805DD289
:100AB000B8EB0408274412D0B8443B464FF0030C6F
:100AC0009908D5F8680203F00304425C64000CFA4C
:100AD00004FE013322EA0E0243454254F0D1D5F818
:100AE0000C33634ABF089F4262D2C2F80C7330468F
:100AF000BDE8F08783BBD5F87412D5F87002761A7A
:100B0000F1093409425C04F007070123BB4022EAE3
:100B100003034354D5F80C33D5F86802B6099E4256
:100B200038BFC5F80C63825D04F00303A6080327F1
:100B30005B0007FA03F322EA030282550134D5F879
:100B40006802A60804F00303825D590042FA01F12D
:100B500001F003010229EBD00020BDE8F08708F185
:100B600001080EF1010E864589D19DE7C444644514
:100B700021D808EB070307EB040E734538BF4FF08D
:100B8000020C0DD29808D5F8687203F003013A5CA4
:100B900049000CFA01F101330A4373453A54F1D18B
:100BA000C8EB0402120106EB081000211FF06EFCD6
:100BB0003046BDE8F087F808D5F87032DFF8B0901D
:100BC0001B5C07F007073B4103F00103002AC3D079
:100BD00008461946FFF7E4FD04460028BCD04FEA5A
:100BE000081231461FF00EFCB9F8003393BBD9F858
:100BF0007402D9F87072301AC6090109BA5D01F0A1
:100C0000070E012303FA0EF322EA0303BB55D9F8BA
:100C10000C33D5F868628009984238BFC9F80C03D4
:100C2000325C8F0801F003034FF0030E5B000EFAF5
:100C300003F322EA0302F2550131D5F868628F0806
:100C400001F00303F25D580042FA00F000F00300E7
:100C50000228EBD02046BDE8F08708463146BDE8C3
:100C6000F047FFF79DBD9C464FF001081CE700BF11
:100C7000A4A7002010B58AB003A80B4CFFF706FD0F
:100C80000599039A049B00912046084900F01AFF39
:100C90000998069900900191079A089B04492046FB
:100CA00000F010FF0AB010BDC4630808848707086D
:100CB000A88707082DE9F041544F55495548D7F802
:100CC000742200F0FFFED7F86C12890018BF0025CF
:100CD0001ED180E005F0030676004FEA9508D7F8AC
:100CE00068324A4A13F80830334103F00303022BF9
:100CF0006FD0032B6BD0012B44D02E2246494548A0
:100D000000F0E0FED7F86C1201358900A94262D9E3
:100D1000A806DFD18D426CD2D7F868024FEA950859
:100D200005F0030610F80830760033419A0721D108
:100D30002C4604E0825C42FA03F39B0708D101349D
:100D400004F003038C424FEA94024FEA4303F1D3C9
:100D5000621B7F2A0ED992092E48304900F0B2FE5C
:100D6000D7F86C3224F03F05B5EB830F33D24FEA4E
:100D7000950800262A4A2B4926482B011A4000F0E4
:100D8000A1FEACE7D2F87412274A2B01CB5893424C
:100D900029D0264A934228D0254A93422FD0254A6B
:100DA00093421ED0244A93421BD0244A93421ED021
:100DB000234A93421BD0234A934222D0224A934291
:100DC00021D0224A93420CBF4D22682296E76D2221
:100DD00094E73D2292E70F481D49BDE8F04100F03D
:100DE00001BB53228AE7542288E74C2286E741223E
:100DF00084E705F0030676004FEA9508BAE7442237
:100E00007CE746227AE7422278E700BFA4A70020C9
:100E1000F0870708C46308083488070810880708A3
:100E2000F0FF0F002C88070860A3080850910808FD
:100E3000CC82080884A00808EC9B0808D07F08082A
:100E4000947F08080C8C08088C8D0808B892080854
:100E50000C880708054B5B695A68904201D21B68F1
:100E6000FAE7801A043053F820007047A4A7002046
:100E7000014441F20553884205D210F8012B03EBDF
:100E800043135340F7E798B2002808BF012070478A
:100E9000034B044A5A610022C3F84C22704700BF3A
:100EA000A4A7002058E708082DE9F84F8146884696
:100EB000FFF7DEFF154B5C69834624B3E56804F158
:100EC000100A043504EB85055646AE42374618D263
:100ED00056F8040B4278037843EA02235B45F4D1C9
:100EE00083784345F1D10330494642461FF0F6FA74
:100EF0000028EAD16368CAEB070003EBA000BDE855
:100F0000F88F2468D9E72046BDE8F88FA4A7002011
:100F10002DE9F84F81460E46FFF7C6FF024600282E
:100F200040F08580FF2E03D9424843490CF0B6FAC1
:100F3000424CD4F84C02351DD0B1D4F85432D4F818
:100F400050122B448B4213D92944FFF7ABF90746C3
:100F500048B9D4F84C02D4F854123A46FFF7A2F933
:100F6000C4F84C7204E0D4F850322B44C4F8503228
:100F7000D4F84C32B3B97F2D8CBF2F46802738462A
:100F8000FFF775F9C4F84C0238B92846FFF76FF936
:100F90002A4BC3F84C0298B32F460023C4F8507272
:100FA000C4F85432D4F854A2D4F84CB2234F31468A
:100FB00055444846C4F85452FFF75AFF0BEB0A0851
:100FC0000BF80A003246000A88F80260464488F8A6
:100FD0000100494608F103004FF000091FF012FA22
:100FE00086F8039063699D68DB68AB4215D36D009A
:100FF0000A2D38BF0A25281D8000FFF738F910B9DF
:1010000028460CF055FA7A690260D1685368856009
:101010000B444360C0F80C9078616269D1684B1C46
:101020000431D36042F821805268013A1A441046D4
:10103000BDE8F88F9885080828BD0708A4A70020F8
:1010400010B504461FF064FA01462046BDE8104082
:10105000FFF75EBF08B5FFF7FDFE4278007840EA73
:10106000022008BD08B5FFF7F5FE807808BD08B579
:10107000FFF7F0FE033008BD10B50C46FFF7EAFE9F
:1010800083782360033010BD2DE9F0411D46002315
:1010900003600B6013602B60174B5C690746884642
:1010A00016461CB3154B9C4220D03B6801333B6075
:1010B000D8F80020E3681344C8F80030E36804332C
:1010C00004F1100204EB83039A4207D23168081D31
:1010D00052F8041B897801443160F5E72046FFF798
:1010E00079FC2B68246818442860DAE72A6833689A
:1010F00013442B60BDE8F081A4A7002058E708083E
:101100000C4B70B55C69A4B10B4B9C4211D0E368E9
:10111000043304F1100604EB8305AE4207D256F8FF
:10112000042B06490648033200F0CCFCF5E724689E
:10113000E9E770BDA4A7002058E7080836BD0708F6
:10114000C463080838B544680368214499420546D9
:1011500011D9037BDB0703D5074800210CF09EF96A
:1011600001F1100424F00704083480682146FFF7D9
:101170008EF82C60A86038BD9885080870B50546C3
:101180000E4611461446FFF7DDFF6B68A86822463D
:10119000184431461FF064F96B681C446C6070BDE4
:1011A00070B54668B142044628BF31460D4601215C
:1011B000FFF7C8FFA168681C0844721B29441FF090
:1011C0004FF96368A06801336360284470BD38B587
:1011D00004460025002914BF0846012020606560F0
:1011E000FFF73AF8237BA06065F30003237338BD53
:1011F00038B505460C460131FFF7E9FF6C6038BD94
:1012000000234360037B016043F0010382600373AA
:101210007047000038B514460546FFF7D8FF024B6B
:101220002560636038BD00BF7D110008037BDB07CC
:1012300010B5044602D48068FFF736F80023A36097
:1012400010BD38B505461020FFF706F829460446BC
:10125000FFF7BDFF204638BD10B5044650B1037BF3
:10126000DB0702D48068FFF71FF82046BDE8104076
:10127000FFF71AB810BD000038B5037BDB07044642
:101280000D4603D5074800210CF008F90168806875
:101290002944FEF7FCFF2368A0601D442560184424
:1012A00038BD00BF9885080838B504460D46FFF7DD
:1012B00049FF6368A0681D446560184438BD90E824
:1012C0000C009A4210B5044602D10121FFF7D4FF69
:1012D000A26863680021D154A06810BD10B50C4607
:1012E0000121FFF7E1FF047010BD7F29F8B50D461D
:1012F00004D80121FFF7D8FF0570F8BDB1F5006FE4
:101300004FEA911401F03F0609D20221FFF7CCFF0A
:1013100064F03F0466F07F0604704670F8BDB1F5D6
:10132000803F4FEA11370ED20321FFF7BDFF04F0D3
:101330003F0467F01F0764F07F0466F07F060770C4
:1013400044708670F8BD0421FFF7AEFFAD0C07F0C6
:101350003F0704F03F0465F00F0567F07F0764F076
:101360007F0466F07F06057047708470C670F8BD14
:1013700038B5054608460C461FF0CAF82146024615
:101380002846BDE83840FFF7F9BE10B51446FFF710
:1013900007FF047010BD10B51446FFF701FF04707D
:1013A00010BD436899428CBF00235B1A43607047AD
:1013B00070B515464268914204460ED24B199342CD
:1013C00001D3416070BD8668521A7018521BF11823
:1013D0001FF046F86268521B626070BD08461146F5
:1013E00024F006BC70B5064608460D461FF090F87E
:1013F000044620B196E8090029462246984720462F
:1014000070BD00002DE9F74F0D9C9146A41A9DF880
:10141000302012F0DF0F06468A4609D0302A0CAA87
:10142000264F0EBF4FF0100817464FF0010802E09C
:10143000234F4FF0100813F0800205D0022394FBD5
:10144000F3F3E51A1C4602E013F0010515D1002C58
:1014500016DDA346C345DC46A8BFC446624696E8EF
:1014600009003946CDF804C09847DDF804C0CCEB3C
:101470000B0BBBF1000FEDDC03E02546144600E04A
:101480000024B9F1000F05D096E8090051464A46FC
:1014900098474C44002D0DDD2C444545A946A8BF76
:1014A000C14696E8090039464A46C9EB0505984702
:1014B000002DF2DC204603B0BDE8F08FD7630808AA
:1014C000E86308082DE9F04389B08046119E109822
:1014D0009DF84890139F0AB900220DE0002904DA14
:1014E0002D228DF80F2049420EE0B40701D52B22A2
:1014F00002E07207F0D520228DF80F2021B908AC48
:10150000302304F8013D12E008ACB1FBF3F503FB16
:101510001512092AC6BFA0F10A0E7244303204F82F
:10152000012D04AA9442294601D9002DEDD116F0CF
:1015300040039DF80F500DD0ADB10122CDF80090C1
:10154000019240460DF10F013346FFF75BFF013F6B
:10155000054608E03DB104AA944284BF04F8015C4A
:1015600004F1FF341D4608AB1A1BCDF8009001971B
:10157000404621463346FFF745FF284409B0BDE801
:10158000F08300002DE9F04F91B093469946CA07C9
:101590009DF86C301A9E059382460C461C9FDDF820
:1015A00074800BD48B0703D10968814B994205D015
:1015B00020460CF031FF400040F0010416F081039A
:1015C00006D1059A302A03D14745B8BF4746984609
:1015D000204610F008F8002808A90BDBB50701D554
:1015E0002B2302E0720705D520238DF820300DF162
:1015F000210500E00D46F30622D5BBF1020F06D10E
:101600002B46302003F8020B09F1010016E0BBF174
:10161000080F0AD1B2054FF030032B7045BF09F116
:101620000E036B70013502350AE0BBF1100F07D1D4
:101630002B46302003F8020B09F1170068701D4695
:10164000002316F0200F0CBF18462C20B8F1010F14
:101650000CAAC8BF46F04006099216F0400F4FF0A2
:1016600010022B700B938DF81F30A5EB01050A9229
:10167000CDF800B05FFA89F315D0002201920293F1
:101680000390234609A80AA90BAA0FF079FE037854
:101690002D2B834615D18DF81F300B9B013B00F19C
:1016A000010B0B930DE00191029303900AA909A885
:1016B0000BAA23460FF064FEB8F1010F834644DC09
:1016C00002E0B8F1010F64DC4FF000094C467306EC
:1016D00019D59DF81F3053B10023012200930192C8
:1016E00050460DF11F01FFF78DFE013F044455B137
:1016F0000023012201920093504608A92A46FFF7D1
:1017000081FE7F1B0444059B0B9AB8F1010FC8BFF3
:1017100047468DE88800504659463346FFF772FE2B
:101720000444B9F1000F09D0202300228DE80802FB
:10173000504620491346FFF765FE044409980CAB58
:10174000984230D0FEF7B0FD2DE00B9C4445B8BF69
:101750004446BC420ADA06F00103002BA7EB04045E
:1017600016BFA1464FF00009002402E04FF0000927
:101770004C4626F001064CB1202300228DE81800CB
:1017800050460C491346FFF73DFE044630230593AF
:101790009DE70B9C9DF81F304445B8BF444603B1FC
:1017A00001342C44D5E7204611B0BDE8F08F00BFCE
:1017B00050900808830E09082DE9F0438BB012F011
:1017C000020F07460C4691469846129E05D112F02C
:1017D000040F0CBF0023202300E02B23009302A85A
:1017E00020212246139B0AF009F819F4807F054650
:1017F0000DD0431C1F2B0AD80AAA1544252205F830
:10180000202C0AAA1A44002102F8201C1D4619F0B7
:10181000400412D09DF808302F2B4FF000030ED853
:10182000012202A9009301923846FFF7EBFD013E29
:101830000446013D0DF1090103E002A901E002A9FE
:101840001C46CDF80080019638462A464B46FFF7E5
:10185000D9FD20440BB0BDE8F08300002DE9F04F26
:10186000814689B0904600250B461C4613F8012B93
:101870004AB98C420AD9661A99E809003246984753
:101880003544214602E0252AEFD1F2E70B78002B00
:1018900000F01081013120234FF0000A084611F8B2
:1018A000012BAAB12D2A02D14AF0010AF6E72B2A10
:1018B00002D14AF0020AF1E7202A02D14AF0040AD2
:1018C000ECE7212A02D14AF0080AE7E7302A01D0E2
:1018D000002203E04AF0400A1346DFE7014610F811
:1018E000016BA6F13004092C04D80A2101FB026225
:1018F000303AF3E72E2E0C461ED148782A2803D022
:1019000001314FF0000B07E0D8F800B0023408F1C5
:1019100004062BEAEB7B12E00E78A6F130000928D2
:101920000C4601F1010105D80A2000FB0B6BABF15D
:10193000300BF1E7464602E046464FF0FF3B217888
:101940006C2908BF01342778002F00F0B380642F82
:1019500062D00ED8502F7FD005D8A7F145010229BB
:1019600040F288809DE0622F12D022D8582F5FD09D
:1019700097E0712F28D004D8672F7BD9702F6BD0B8
:101980008FE0752F54D0782F52D0732F30D088E04D
:101990003168009306F104080192484611B14749A5
:1019A000042201E0464905225346FFF72BFD05447A
:1019B0007EE008A9306801F8040D06F104080192E0
:1019C000009348460122EFE707A930680592049387
:1019D000FFF752FBBBF1FF3F049B059A08BFDDF800
:1019E0001CB00093014606F104080192484611E03C
:1019F000BBF1FF3F06F10408366807D13046059277
:101A000004931EF085FD059A049B83460093019282
:101A1000484631465A46C7E761218DE802040293E1
:101A2000039206F104084846316801220A231EE0A9
:101A300007F1010E27F00F070F3FFFB28DE880047A
:101A4000029303920EF0060E06F104084846316830
:101A50000022CEF110030AE061218DE80204029316
:101A60000392316806F10408484600221023FFF76C
:101A700029FD9CE7073626F00706D6E90001059206
:101A8000049376F061FB059A049B00EE100A8DE842
:101A9000040848463946524606F10808FFF78CFE0E
:101AA00085E799E809002146012298470135B046AB
:101AB000611CD9E6284609B0BDE8F08FCC63080860
:101AC000D16308080EB403B503AA52F8041B0192AF
:101AD000FFF7C4FE02B05DF804EB03B07047037873
:101AE0001A0613D503F07F0340221A4203D023EADB
:101AF00002035208F9E710F8012F02F0C001802913
:101B000004D102F03F0242EA8313F4E7184670471B
:101B1000421C10460132037803F0C003802BF8D03A
:101B200070470023814207D911F8012D02F0C0024D
:101B3000802A18BF0133F5E7184670470144034671
:101B400000208B421A4608D2127802F0C002802A86
:101B500003F1010318BF0130F3E770477F289DBFF1
:101B6000024B185CC0F3400000207047F96308087E
:101B70007F289DBF024B185CC0F3C0000020704757
:101B8000F96308087F289DBF024B185CC0F38000F2
:101B900000207047F96308087F289DBF024B185C3E
:101BA000C0F3801000207047F96308087F2809D827
:101BB000064B1B5C13F00C0F06D1A0F15F035842DB
:101BC000584170470020704701207047F9630808AA
:101BD0007F289DBF024B185CC0F3001000207047A7
:101BE000F96308087F289DBF024B185CC0F34010C2
:101BF00000207047F963080810B50446FFF7E8FFB6
:101C000010B104F1200010BD204610BD10B50446EF
:101C1000FFF7E8FF10B1A4F1200010BD204610BD71
:101C20003038092884BF20F020000738704710B5ED
:101C30000144044600208C4218D214F8013B30B114
:101C400003F0C003802B15D10138C0B2F3E7BF2BDE
:101C500009D9F72B0FD8DB0803F00602E52313415F
:101C600003F00300E7E71B0605D4E4E7B0FA80F0D1
:101C7000400910BD002010BD023981420B4603D33C
:101C80001A880239002AF8D00233181A4010704717
:101C9000F0B51C0994421AD2121B01EB44011546FF
:101CA00006466DB131F8024B012D84BF0F8844EA1E
:101CB000074403F00F07FC4026F8024B013DF0E714
:101CC00000EB420030F8023C1BB9501EF0BD002072
:101CD000F0BD1046F0BDF0B5059F0024D21B25468F
:101CE000BC420AD031F814E033F81460764435442D
:101CF00020F814502D0C0134F2E764000619023C60
:101D00002144374614463CB131F8023F1D4427F8C0
:101D1000025B013C2D0CF6E706EB42031DB10121ED
:101D200026F812100233181A4010F0BDF0B5059FC6
:101D30000024D21B2546BC420AD031F81460354439
:101D400033F81460AD1B20F814502D140134F2E761
:101D500064000719023C0C44164639463EB134F87B
:101D6000023F1D4421F8025B013E2D14F6E707EB0C
:101D70004201BDE8F040FFF77FBF2DE9F0439E46EA
:101D800008AB93E82802DDF81C80561E0239844611
:101D9000741C22D031F8027FC2EB0804344407F5EA
:101DA0007F47B44207F1FF072F449DBFBEF80050A4
:101DB00005F57F44FF344FF6FF744C4484EA070571
:101DC00013FA85F32CF8023B98BF0EF1020E4FEA8E
:101DD00014493D0C1B0C013EDAE700EB420113B144
:101DE00020F812300231BDE8F043FFF745BF10B5CF
:101DF000044638B18068FEF757FA2046BDE8104027
:101E0000FEF752BA10BD38B50446806801298CBF70
:101E10000D46022518B12368B5EB930F07D9690069
:101E2000FEF735FA2368A06065F39F03236038BD91
:101E300038B505460C20FEF70FFA2A78037862F3CE
:101E400000036FF341030446037028682368C0F35E
:101E50009D0060F39F0323606B6863604000FEF7A2
:101E6000FBF9A0602A68A968C2F39D0252001EF027
:101E7000C9FA204638BD10B54B0018441A4449B180
:101E800030F8023D32F8024D1B1B002B04DB06D15B
:101E90000139F4E7084610BD4FF0FF3010BD0120B6
:101EA00010BD38B505460C460221FFF7ACFF2B7874
:101EB000002CB5BF43F001036FF300032B702B70B0
:101EC0004FF00003B4BF614221466B6039B16B68CB
:101ED000AA68581C686022F81310090CF6E738BD90
:101EE000037803F0FE036FF34103037003686FF39D
:101EF0009F030360002343608360704728B1037829
:101F00009B0702D48068FEF7CFB9704738B5054605
:101F10000C464968FFF777FF22782B78A868A168FC
:101F200062F300032B7063686B606268BDE8384041
:101F300052001EF067BA034609B959607047FFF7AF
:101F4000B0BF38B505460C46FFF7CAFF2846214604
:101F5000BDE83840FFF7EFBF30B50578816005F088
:101F6000FE0545F002050570056862F39F05002235
:101F7000056042601946BDE83040FFF7DCBF70B530
:101F80000421064614461D46FFF73DFF9DF810202C
:101F9000337852B1002C75F1000206DA43F00103E8
:101FA0006242337065EB450304E06FF30003337066
:101FB00022462B460021716052EA03010CD0716861
:101FC000B0684C1C746020F81120110C41EA0341E8
:101FD000180C0A460346EFE770BD2DE9F04110EEFC
:101FE000105A0378EA0F62F300030370C5F30F433E
:101FF00013F4FF43804604D10023C8F80430BDE841
:10200000F081B3F5FF4FF7D0C5F3C753A3F17F06B7
:10201000002EF1DB04D10121BDE8F041FFF741BF03
:10202000162ED8BF0026C5F31605A3F16F074FF093
:102030001004D8BFC3F1960397FBF4F7C8BF093665
:1020400045F40005D8BF34463946C9BF963BDD404C
:1020500006F00F0693FBF4F4FFF7D5FEC8F8047002
:102060002CB1D8F80800002162001EF00FFA4EB122
:10207000D8F8083005FA06F2C6F1100623F8142045
:10208000F540013464007F00BC4205D0D8F8083028
:102090001D532D0C0234F7E7BDE8F0812DE9F8431C
:1020A0008F1804460E46C2F35B0198460131089D25
:1020B000FFF7A9FE2278B8F1000F02D042F001022A
:1020C00001E068F300020023227063603146B942E8
:1020D000084631D20278A2F13003092B01F1010147
:1020E0000CD9A2F14103192B02D8A2F1370305E064
:1020F000A2F16103192B1FD8A2F15703AB421BD2E7
:10210000A068D4F804E09BB27246844652B1BCF891
:1021100000801FFA85F909FB08332CF8023B013ACD
:102120001B0CF3E700EB4E0213B120F81E30023215
:10213000121A52106260CAE7801BBDE8F883F8B536
:10214000044615461E4621B1531E1E444FF0FF376C
:1021500000E00127E9000F3109092046FFF753FE8F
:10216000237800216FF30003237061609DB1002389
:102170000F2908DC32788A401343013D9BB201F1FC
:1021800008013E44F4D16268501C6060A0681039B8
:1021900020F81230EAE76168A06800EB4101FFF720
:1021A0006BFD6060F8BD38B544680CB94B68CBB1C5
:1021B0000B78057803F0010305F001029B1A11D199
:1021C0004B6880688A689C4204D306D82146FFF792
:1021D00052FE03E04FF0FF3000E00120EB0702D594
:1021E000404238BD184638BD884210B5044601D07B
:1021F000FFF78CFE23786FF30003237010BD884235
:1022000010B5044601D0FFF781FE2378C3F3000226
:10221000C2F1010262F30003237010BD88421FB5B2
:10222000044601D0FFF772FE626842B920460121E0
:10223000FFF7E9FDA26801231380636021E02378A2
:10224000D9070ED56FF30003A06823700123ADF802
:102250000E30009301460DF10E03FFF767FD60603D
:1022600013E0511C2046FFF7CEFDA06862680123F1
:10227000ADF80E30009301460DF10E03FFF72BFD74
:102280006060237843F00103237004B010BD2DE992
:10229000F84F0F4649680646144601B12AB9304640
:1022A0003946BDE8F84FFFF731BE02F10F052D09A1
:1022B0002944FFF7A8FD7968B368B86805EB010801
:1022C00014F00F0208F1004404F1FF3401F1004E54
:1022D0006FF0010C4FEA44040EF1FF3E0CFB01FCD1
:1022E0000CEB4E0E2344704408BF102299464FF069
:1022F000000EC2F1100A59B130F811B04BEA0E0EBF
:102300002EFA0AFA29F802A94FEA0E4E0139F0E72F
:102310002EFA0AFE03EB0C0923F80CE06B00C3F164
:10232000020305F100429944013A484652001EF06A
:10233000ADF802344C44B8F1000F05D034F8023D3A
:1023400013B908F1FF38F6E7C6F804803A78337815
:1023500062F300033370BDE8F88FF0B50D464968AD
:1023600085B00446164601B122B920462946FFF73A
:10237000CDFD44E0FFF747FDA9686A68A0683346D1
:10238000FFF786FC60602978237861F300032370EF
:10239000DB07024633D500236868ADF80E303109FB
:1023A00083420DD08B420BD0AF6837F813702FB13A
:1023B00001238142ADF80E3004D313E00133EFE77F
:1023C00081421CD2AB6806F00F0633F811000121E0
:1023D00001FA06F3013B184218BFADF80E10BDF824
:1023E0000E3063B10123A06812B90380636006E078
:1023F000009301460DF10E03FFF76DFC606005B020
:10240000F0BD73B5154606460C4688686B6849688A
:102410009268994204D306D8FFF72DFD002802DA0E
:1024200023462C461D462A7823785340DB070DD4DB
:10243000616830460131FFF7E6FC6B680093B068D5
:10244000A1686268AB68FFF746FC0BE03046616844
:10245000FFF7D9FC6B680093B068A1686268AB684D
:10246000FFF764FC70602278337862F30003337006
:1024700002B070BDF7B5154606460C4688686B6815
:1024800049689268994204D308D8FFF7F4FC002801
:1024900004DA234601272C461D4600E000272A784F
:1024A00023785340DB070DD5616830460131FFF7D3
:1024B000AAFC6B680093B068A1686268AB68FFF71C
:1024C0000AFC0BE030466168FFF79DFC6B680093E7
:1024D000B068A1686268AB68FFF728FC706022787A
:1024E00033781FB1C2F30002C2F1010262F30003AC
:1024F000337003B0F0BD2DE9F04F16464A6873689B
:102500009A420C463EBF34460B461E462378DA07F5
:1025100085B0054621D4317811F001071DD16168DD
:10252000FFF771FCA868A468D6F808E0726839461D
:10253000914208D03EF8116034F81130334020F851
:1025400011300131F4E700EB4101FFF795FB2B78E7
:1025500068606FF300032B7065E061682846013105
:10256000FFF751FC227831787368019381EA020306
:1025700003F0010383F001035F42BFB202F00102E6
:10258000A868D4F804E0009301F001010397A36860
:10259000D6F808805742BFB2C1F1000C02971FFA6B
:1025A0008CFC0EF1FF37A3F1020982467B1C26D07A
:1025B00039F802BF029B8BEA030B019B5A44CEEB16
:1025C000030BBB44BB4598BFB8F800B0039B94BF56
:1025D0008CEA0B0BE346594401EA020B8BEA030B2E
:1025E000009B13FA8BF32AF8023B4FEA134398BF80
:1025F00008F10208090C120C0093013FD6E7009B7A
:1026000000EB4E011BB1012320F81E300231FFF711
:1026100033FB686023783278C3F3000313402A78D1
:1026200063F300022A7005B0BDE8F08F2DE9F84F82
:1026300017464A687B689A420D463EBF3D460B46A8
:102640001F462B78DB07064632D43B7813F0010493
:102650002ED16968FFF7D7FBD7F808C06A687F6892
:10266000D6F808E0A968D01B2346BB4208D03CF846
:10267000134031F8132022432EF813200133F4E7DE
:102680005B000EEB0302023B0B441446014629B1EA
:1026900033F8025F24F8025B0139F8E702EB4002ED
:1026A000CEEB020233785210726061F3000347E010
:1026B000696830460131FFF7A6FB2B783C786968E2
:1026C000B068AD68D7F808C0D7F8048003F00103FC
:1026D00004F00104C3F100096742A5F1020E1FFADC
:1026E00089F9BFB24A1E82460125B2F1FF3F1FD0D1
:1026F0003EF802BF8BEA090B5B44C1EB080B934425
:10270000934596BFBCF800B0BB4687EA0B0B5C4410
:1027100044EA030B6FEA0B0B15FA8BF52AF8025B00
:1027200098BF0CF1020C240C1B0C2D0C013ADCE7B9
:1027300000EB4101FFF7A0FA3378706043F001032A
:102740003370BDE8F88FF0B516464A6873689A4250
:1027500038BF0B460C463CBF34461E4623783778BC
:102760005F4017F0010785B0054639D16168FFF772
:102770004AFB2378716813F0010322D16268A868CC
:10278000A768B668521A8B4209D036F813E037F8BA
:1027900013408EEA040420F813400133F3E75B0092
:1027A000C118023B3B4414460E462CB133F8027F5D
:1027B00026F8027B013CF8E701EB4201FFF75CFAE7
:1027C00009E08DE8820002970397A868A168626813
:1027D000B368FFF7D2FA2B7868606FF300031DE04F
:1027E00061680131FFF70FFB7368009301230193C8
:1027F0002378A86803F0010383F001030293337880
:1028000003F0010383F001030393B368A1686268D6
:10281000FFF7B3FA2B78686043F001032B7005B023
:10282000F0BD2DE9F04F4B6885B004460E461546C5
:102830000BB1536823B90023636005B0BDE8F08F86
:10284000814206D1FFF7F4FAB542074608D10546A2
:1028500006E0824206D1FFF7EBFA0546074602E0A2
:102860003E4600E000277368696820461944FFF778
:10287000CAFA2268A068C2F39D02002152001DF02E
:1028800005FEB368D6F804E0D4F808A002936FF010
:10289000010303FB0EF3D5F808806A6803930AEB83
:1028A0004E010020039B01EB030C2AB3029BCDF8E1
:1028B00004E0A3F102090023019878B1B8F8000000
:1028C00039F802BF0BFB0033BCF800B001985B4441
:1028D00001382CF8023B01901B0CEDE7084601F192
:1028E000020C0BB10B806046CAEB00004010013AAD
:1028F00008F102086146D5E76060297833784B40DB
:1029000013F0010F237838460CBF62F3000343F045
:102910000103237005B0BDE8F04FFFF768BA4B68BC
:1029200070B50646144613B11378DA0702D50023B2
:10293000736070BD636823B90121BDE87040FFF783
:10294000B0BA0846FFF774FA05462046FFF770FA5A
:10295000012104463046FFF7A4FA636883B1A368F7
:102960001B88DB0704D5304631462A46FFF759FF5E
:10297000A068626801460123FFF78AF9606038B9F0
:102980002846FFF734FA2046BDE87040FFF72FBA1B
:10299000284629462A46FFF744FFDEE72DE9F04F97
:1029A0000C46516891B00131054603920493FFF73C
:1029B0002AFA039BA8685A680132520000211DF0D0
:1029C00065FD00236B60039B596820460131FFF7CA
:1029D0001AFA20460399FFF799FA049BD4F8048069
:1029E0009B680193049BA7685B680293AB6805939F
:1029F000029B98450DD30FD838464146019AFFF700
:102A00003AFA002804D1059A60600123138001E09E
:102A100002DA00236B60E9E0029B03F10042013A15
:102A2000019B33F812304FEA420B00211E0488B29A
:102A300001F1010102D45B009BB2F7E74FEA4803C2
:102A40004FF0000E08F1010103F1020927F818E028
:102A5000B9446160BC46CC450ED2BCF8008008FA8F
:102A600000FA4AEA0E0E2CF802EBC0F1100E28FA1A
:102A70000EF81FFA88FEEEE7019E36F8122082401B
:102A80000692029A012A0AD932465A44069E32F820
:102A9000022CC0F1100E22FA0EF216430696029A8C
:102AA000891A6960059A01F10041013902EB41027E
:102AB00009920BF102020A92F918D4F804B0029BB1
:102AC00008919B4564D931F8023CB1F800E043EA33
:102AD0000E4E069BBEFBF3FE0A9BC3EB010C019B53
:102AE000CDF82CC0023B07931E46002399468C4527
:102AF00025D236F8022F3CF802AB824042EA19494F
:102B00001FFA89F202FB0EF2524503D2C2EB0A0809
:102B100098450ED81344CAEB030ACAF100032CF8F7
:102B2000023C1FFA8AF3003318BF012303EB1A4358
:102B3000DDE7C3EB08032CF8023C0023D7E7089A33
:102B4000128802399B1ADBB10022DDF81CA0DDF8E7
:102B50002CC09146089EB4450ED23AF8028F08FA6E
:102B600000F848EA1949BCF8008012FA89F2424498
:102B70002CF8022B120CEDE79B1A0EF1FF3EE2E758
:102B8000099B23F802E909930BF1FF33636094E793
:102B90000BF10043013B07EB43030022BB4216D37A
:102BA000B3F800E04EFA00F11143C0F110020EFA42
:102BB00002FE23F802191FFA8EF2EFE703F100423A
:102BC000013A059931F812206AB9013B6B606B68D4
:102BD000002BF3D107E003F10042013A37F812204D
:102BE00022B9013B63606368002BF4D1049B1A781F
:102BF000039B1B785340DB0714D52B7843F001036C
:102C00002B70636873B10DA84FF0FF31FFF799F98E
:102C1000284629460DAAFFF7F4FB20462146049AD0
:102C2000FFF7EFFB11B0BDE8F08FF0B51F464B6822
:102C300085B006460C4615464BB11378DA0706D424
:102C40007B68012B06D1BB681B88012B02D10023B6
:102C5000736040E030460121FFF723F96B68002BD9
:102C600039D02046FFF7E4F804462846FFF7E0F89D
:102C7000054601A8FFF734F96B68B3B1AB681B8850
:102C8000DB070AD5304631462246FFF7CAFD01A8C8
:102C9000314632463B46FFF781FEA8686A68014626
:102CA0000123FEF7F5FF686048B901A8FFF726F990
:102CB0002046FFF79CF82846FFF799F80BE02046DE
:102CC00021462246FFF7ADFD01A8214622463B469C
:102CD000FFF764FED0E705B0F0BD10B5816842682B
:102CE000002301EB4202914204D232F8024D44EA41
:102CF0000343F8E70278D20748BF5B42184610BD8D
:102D000030B542688468002304EB4202944207D243
:102D1000B3F5004F0BD232F8025D45EA0343F5E705
:102D20000278D20748BF5B420B60012030BD002013
:102D300030BD2DE9F043904609B19D1800E01D46D5
:102D4000846842680026A4F1020E4FF0010937465C
:102D500042B33EF8024F103744EA0646072F1FDD04
:102D600090F800C0B4B21CF0010F1FBFE44359FA41
:102D700084F4A4B24FEA142939B105F1FF3C9C4513
:102D800005F8014C08D1BDE8F08305F1010C2C7069
:102D900003EB0804A44505D0083F360A6546DDE785
:102DA000013AD5E7BDE8F083826843689FED0C0ADD
:102DB00002EB43039A420CD233F8021D9FED097ACD
:102DC00007EE901AF8EEE77AE0EE077AB0EE670ABF
:102DD000F0E70378DB0748BFB1EE400A704700BF59
:102DE00000000000000080472DE9F84F47689DF87B
:102DF00028900B9D80468A4616469B468FB93AB16D
:102E0000561E284616F8013F1BB100F8013BF9E7B2
:102E1000284630230370002300F8013F401BBDE823
:102E2000F88F7F003846FDF717FAD8F808103A46B1
:102E30001DF0E8FA294684462B460CEB0700841E59
:102E4000002264450AD3B4F800E04EEA0242B2FB25
:102E5000FAFE24F802E90AFB1E22F2E73032392A90
:102E600084BFABF13A0412191A705C1C62468242AC
:102E7000964606D2BEF800E00232BEF1000FF6D050
:102E800004E0B9F1000F0FD0012203E0B9F1000F07
:102E900008D00022601A032802BF9C1C83F801900E
:102EA00021460AB92346C8E76046FDF7FDF966B139
:102EB00030461DF02DFB23463044B0421C4604D959
:102EC00010F8012D03F8012BF7E798F80030DB0725
:102ED00042BF2D2323700134631E2A469A4206D234
:102EE0001178187802F8010B03F80119F6E70023AE
:102EF0002370601BBDE8F88F8368C26893423DBFB2
:102F00005A1C826018784FF0FF307047036810B584
:102F1000044613B14068FDF7C7F92046BDE81040EC
:102F2000FDF7C2B9F8B5044610200E461F461546F7
:102F3000FDF792F93544054B076046608660C56031
:102F40006360034B2060A360F8BD00BFF92E00084A
:102F50000D2F00080369272B1ED0222B1CD0752BA8
:102F600003D023F01002622A04D14269272A13D029
:102F7000222A11D0722B02D14369622B03E0622B0B
:102F80000CD14369722B09D18069272804D0A0F1A4
:102F90002203584258417047012070470020704773
:102FA00003690A2B10B5044604D1C3690133C36118
:102FB000012306E0092B036A04BF073323F007034C
:102FC0000133236263692361A36963616068A36855
:102FD00098476369A0610D2B07D10A23984263616A
:102FE00003D1A36860689847A061A369013306D143
:102FF00063695A1C03D00A2B1CBF0A23A36110BDAE
:1030000070B504460E4600252069431C24D00A28CA
:1030100007D10EB1A36AFBB12046FFF7C1FF01251E
:10302000F2E7FEF79BFD98B92369232B08D12046D0
:10303000FFF7B6FF23695A1CE6D00A2BF7D1E3E766
:103040005C2B09D163690A2B06D12046FFF7A8FF44
:103050002046FFF7A5FFD7E7284670BD2DE9F047CA
:10306000002104468164FFF7CBFFE369A363636A31
:10307000256AE563002B03DA062284F840202DE060
:1030800006D0052284F84020013B6362BDE8F0874A
:10309000002837D0A36A002B34D1226B606B042345
:1030A00084F8403002F10043013B013D30F8133019
:1030B0009D4200F07B8213D9E16A8A4207D308312E
:1030C0004900FDF7E4F8E36A60630833E362236BC9
:1030D000626B591C216322F81350636A0133D4E7F1
:1030E000236B03F10042013A30F81220954205D2D9
:1030F000013B2363636A013B6362F1E700F05682A0
:10310000022351E225696B1C01D100234CE22046C9
:10311000FFF720FF002800F02181002384F84030D1
:103120002369752B13D0622B0AD16369722B0CBFF4
:10313000022501254FF00B030CBF0127002711E0EA
:10314000722B08D16369622B09D0012504E00125A7
:103150000A23002706E000250A232F4602E0022565
:103160000B23012794F8402012B984F8403002E084
:103170009A4240F01B823DB12046FFF711FF022D1D
:1031800002D12046FFF70CFF23692046222B14BFF3
:103190004FF027094FF02209FFF702FF23694B4543
:1031A0000BD163694B4508D12046FFF7F9FE204655
:1031B000FFF7F6FE4FF0030801E04FF0010800258D
:1031C0002669701C00F0B480B8F1010F02D10A2EFC
:1031D00000F0AE80454580F0B0804E4506D104F148
:1031E000440049460135FEF780F89DE05C2E40F032
:1031F00095802046FFF7D4FE25691FB104F14400F5
:1032000031466EE0622D25D012D84E2D4FD007D812
:10321000222D6DD0272D6BD00A2D00F0848049E03F
:103220005C2D65D0612D00F0BC81552D42D11BE095
:10323000742D11D007D86E2D10D0722D12D0662D9E
:1032400038D10C2554E0762D0AD00DD3782D31D10C
:10325000022617E008254BE0092549E00A2547E04A
:103260000B2545E00D2543E094F840300B2B05D1AC
:1032700004F144005C21FEF738F839E0752D0CBFED
:1032800004260826002516F1FF362CD32046FFF72A
:1032900087FED4F810A05046FEF77EFC002800F010
:1032A0007B815046FEF7BCFC2D010544EBE7B54899
:1032B0000AF0EEFAA5F13003072B0FD81D460326BE
:1032C0006369303B072B0ED8013E0CD02046FFF738
:1032D00067FE2369303B03EBC505F1E704F14400C9
:1032E0005C21FEF702F86E1C1DD0B5F5881F11D2C7
:1032F00094F840300A2B05D104F144002946FDF72B
:10330000F4FF10E0FF2D05D80B2B03D104F144008E
:10331000E9B206E0012384F8403004E004F14400FF
:10332000F1B2FDF7DBFF00252046FFF739FE47E746
:1033300045453CBF032384F8403004F1440029464E
:10334000FEF72FF820460121FFF75AFE2046FFF72F
:1033500001FE00287FF4E4AEBDE8F0872846FEF7C2
:1033600007FC216918B95F2901D07F2942D90723B9
:1033700004F1440584F840302846C9B2FDF7AEFF99
:103380002046FFF70DFE2069411C05D12846FDF7B8
:1033900096FF002506460FE0FEF7EAFB10B128462F
:1033A000217CEBE720695F28F9D07F28F7D8FEF76A
:1033B000E9FB0028F3D1E9E7734B304653F82510B9
:1033C0001DF0B0F800280ED10D35EDB2102D84F8A7
:1033D000405040F0EB806D4BD3F85832002B0CBFBF
:1033E0000F230D23E0E0C0F2E1800135242DE3D16D
:1033F000BDE8F0870846FEF7C5FB30B121692E29EC
:103400000CD1092384F840301BE023692E2B56D1C0
:103410006069FEF7B7FB0028F0D150E0082330299F
:1034200084F840300DD1656945F02005622D06D045
:103430006F2D04D0A5F178025542554102E00125D7
:1034400000E0002504F144063046FDF74EFF20461B
:10345000FFF7A6FD2069431C2FD09DB920F0200363
:10346000452B0FD10923652184F840303046FDF704
:103470003CFF2046FFF794FD21692B29E4D02D293C
:10348000E8D1E1E7FEF774FB18B121692E2909D1D3
:103490000CE02069FEF776FB0028F6D123692E2B7D
:1034A00008D1F2E721F020034A2BCDD1092384F87B
:1034B0004030C9E75F2BCAD078E0BDE8F087344DD3
:1034C00000272E7856B12369B34207D0652E01D06C
:1034D000632E00D1013501370135F2E72046FFF7B1
:1034E0005FFD0EB901235FE0212E07D123693D2B3B
:1034F000F8D12046FFF754FD372355E02E2E0DD18D
:1035000023692E2B4FD163692E2B4CD12046FFF718
:1035100047FD2046FFF744FD0C2345E003353E46BA
:1035200015F8028CB8F1630F12D115F8013C22692D
:103530009A4206F1010606D12046FFF731FD3746D3
:10354000B8F1650F01E0B8F1630F04D00235E7E789
:10355000B8F1650FE9D00F4BDB5D84F8403003F024
:10356000FB02522A01D0542B02D1A36A013305E099
:10357000532A01D0552B19D1A36A013BA362BDE8A0
:10358000F08700BF77650808A4640808A4A7002096
:103590003465080879640808012384F8403005463A
:1035A000A6E60725A4E65A2384F84030BDE8F08754
:1035B0007FB5064601AD542085E80E00FCF74CFEB1
:1035C0000446034695E8070043F8046B83E80700C8
:1035D0006FF001020025012322620A22E262E36108
:1035E00023636562A5621420FCF736FE2021606328
:1035F00004F14400FDF7EBFD636B20461D80A561DF
:1036000065612561FFF7CCFC2046FFF7C9FC204629
:10361000FFF7C6FC2046FFF721FDE36B012B18BF27
:103620000523204618BF84F8403004B070BD30B583
:1036300085B001AC05462046FFF774FC284694E8A7
:103640000E00FFF7B5FF05B030BD30B585B00546BB
:1036500001AC294620461CF005F92846FDF7F0FC90
:1036600094E80E00FFF7A4FF05B030BD10B5044686
:1036700070B1C3684068984704F14400FDF7D6FD77
:10368000606BFCF711FE2046BDE81040FCF70CBE55
:1036900010BD03694269013B036152F82300704782
:1036A000036903F18043013B591A436953F8210030
:1036B0007047F8B5446A06460D46DCB194E80A0046
:1036C0002B448B4223D90831002220462944FCF7A1
:1036D000E9FD024650B9616820460831FCF7E2FD79
:1036E00063682360336A6360346203E023682B44B9
:1036F00023600CE0802D2F4638BF802707F108009B
:10370000FCF7AAFD0023076043600446706260680E
:103710000544656008302044F8BD38B50D4603699E
:10372000C1688B42044608D3103140698900FCF718
:10373000AEFDE36860611033E36023696269591C80
:10374000216142F8235038BDF8B50E461D4690E879
:103750000A008B420446174608D31031C90080681E
:10376000FCF795FD2168A060103121606168A068B8
:103770004B1C636050F8312066F3170200EBC10365
:1037800040F83120DF705D60F8BD8369CAB2996B83
:103790000023FFF7D9BF0000F7B586690F4696F8FA
:1037A00040100729054615D1F06CB16CFDF7B0FB50
:1037B0008E2F04460AD1810041F0020105F1280054
:1037C00000220AF027FB08B144680CE0200140F019
:1037D000020147E008290BD1F06CB16C002233469E
:1037E00008F078FA0446E3072DD544F0010139E0EA
:1037F000092907D10096F06CB16C0122002308F072
:10380000F1FA1FE0A1F10A03012B28D8B16CF06C8A
:103810000A2902D8FDF77CFB01E0FDF745FB96F88D
:10382000403030B10A2B0CBF06230A2343EA0011B3
:1038300018E00F4A0F48F16C0A2B18BF1046B26C03
:103840000FF0FCFE04460C212846B66BFFF731FF53
:1038500040F23913066043608460014602E00901CA
:1038600041F00E01284603B0BDE8F040FFF755BF18
:10387000EC9B080884A00808DE2807D010F001039C
:1038800006D043080CBF012000207047012070477C
:1038900018467047FE2807D010F0010306D04308F1
:1038A00014BF012000207047012070471846704760
:1038B00010F0010203D040F00100086013E0B8B13D
:1038C00010F0030311D10279392A10D183680B60FB
:1038D00013F0010007D19A070AD11B6805481B1A8B
:1038E00058425841704701207047104670471846AB
:1038F000704700BF509008082DE9F04F87B02C2A80
:103900000446019116461D460AD10021FFF7C8FE64
:1039100030B1830740F0C8810379902B40F0C48117
:10392000A6F11D03012B39D8A9462F46B9F1000F86
:103930000ED009F1FF3920464946FFF7B1FE236951
:103940006269DB1B824642F82300B9F1000F03D104
:10395000013F4FF0000914E01D2E07D1FFF79AFF39
:103960000028F5D15046FFF787FF06E0FFF784FFF8
:103970000028EDD15046FFF78DFF0028D6D1013F3A
:10398000D4E7B94505D22046FFF783FE09F10109C6
:10399000F7E7ED1B012D00F0878116E01F2E14D1F3
:1039A00020460021FFF77CFE0746FFF765FF28B998
:1039B0003846FFF76FFF40B1DE2500E0FE252046C8
:1039C000FFF767FE204629466CE1A6F12203022B91
:1039D0002AD8691E2046FFF763FE03A9FFF768FF98
:1039E000002800F04881222E06D0232E0CBF4FF075
:1039F00017094FF0180901E04FF01609AF1E002F0C
:103A0000C0F2218139462046FFF74AFE04A9FFF79C
:103A10004FFF002800F02F8148460399049A09F0CF
:103A200065FD013F0390EAE7A6F12503022B40D88C
:103A3000691E2046FFF734FE03A9FFF739FF00286F
:103A400000F01981A5F10209B9F1000F40F3FB80E4
:103A500009F1FF312046FFF723FE04A9FFF728FFF5
:103A6000002800F0088120464946FFF719FEC0F300
:103A7000071000F0FD03402B00F0FD80442800F00B
:103A8000FA802238C7B204980DF0ADFD1A2F02D883
:103A9000002805DAEFE01E2F02D9002800F0EB80A5
:103AA00038460399049A09F021FDA9F1020903900F
:103AB000CAE7282E19D100212046FFF7F1FD03A9FE
:103AC000FFF7F6FE002800F0D68001212046FFF720
:103AD000E7FDC0F3071031281ABF3D38C0B20220FD
:103AE000039908F0F9FE0390ADE0052E77D120464A
:103AF0000021FFF7D5FD8046002800F0BC8010F0C3
:103B0000030B04D10279563A012A40F2B4802046D0
:103B10000121FFF7C5FD00F00F02022A40F0AB8043
:103B2000BBF1000F40F0A78098F804202B2A40F04A
:103B3000A280D8F8082002F00F01022940F09B80F3
:103B40001209482A40F09780D8F80C20002A00F08B
:103B50009280970740F08F8011792F2940F08B8059
:103B6000D2F80890070904A94846FFF7A1FE82464B
:103B700070B94F494F480CF057FBA26905461168D0
:103B8000D8F800205B460CF01BFC2846FCF740FBF5
:103B9000B90041F00201012204F128000AF03AF9CB
:103BA000049B43603846FDF762FA03785F2B20469A
:103BB0000ED1FFF76EFD2046FFF76BFD002120467A
:103BC00008220B46FFF798FEBAF1000F6CD152E0C5
:103BD000FFF75FFD20464946FFF79FFD4BE02B2E88
:103BE00049D101212046FFF75BFD00210746204611
:103BF000FFF756FD07F00F03022B3CD100283AD007
:103C000010F0030237D10379312B34D139098900FF
:103C1000D0F80890284841F002010AF0FBF850B3B0
:103C200040684FEA191104AA08F078FF049B13B307
:103C3000D90705D49A071ED11968204A91421AD192
:103C4000059AC2B9039325B12046FFF722FD013D35
:103C5000F9E7039EF307204602D546F0010121E073
:103C60000C21FFF726FD40F2391301460560436041
:103C70008660204616E0AF1CBF0039462046FFF79D
:103C800018FD46EA0526019B03608146466007440D
:103C900035B12046FFF7FDFC013D47F8040DF7E77D
:103CA00020464946FFF739FD07B0BDE8F08F00BF59
:103CB000EC660808588A0808A866080850900808A2
:103CC000036830B513B91360184630BD9C0702D0A5
:103CD0001060012030BD5C68E5B28D42F8D103F17F
:103CE00008011160200A30BD2DE9F04F93B0002487
:103CF000402302904FF400700D4601920593069404
:103D0000FCF7AAFA20230790802008930994FCF777
:103D1000A3FA21460A900FA80B950D940E940AF071
:103D200031F8019B23B1022B0CBF3C22224600E05C
:103D30003A2205A8A96B0023FFF706FD4FF0000B00
:103D4000069C002C00F05C81013C079AA74F06946A
:103D500002EBC40352F83420DE785B68C2F3170923
:103D6000A34A12F806A0A34A925D642E88BF42F4CB
:103D7000807207EB42070AF03002102A0AF00F089F
:103D800002D0202A31D0D9E013B1BBF1000FD5D039
:103D900007EB4307434525D2BA4637F8022B02F416
:103DA0007041B1F5805F0DD195F84010C2F30B0260
:103DB000914213D105A83146FFF7EEFC2846FFF7E4
:103DC0004DF9BBE70133434504D205A849463246C5
:103DD000FFF7BAFC05A8BAF800104BE00133D9E7A9
:103DE000012B37D84FF0010BAAE7BBF1000F0FD022
:103DF00003F10042013A37F8122002F47042B2F5A2
:103E0000405FEDD105A800210393FFF786FC039BDB
:103E100007EB430B0DE0072805D105A831460393B6
:103E2000FFF7BAFC039B03932846FFF717F9039BA0
:103E30000133434521D25C463BF8021B01F470403C
:103E4000B0F5805F0ED195F84000C9B28842E2D04B
:103E5000002BC7D095F84030052B40F00081664814
:103E6000664902E105A8494632460133FFF76CFC7A
:103E7000218805A8FFF789FC60E7019B33B1052E77
:103E800004D105A80021FFF70BFC20B1002407EBAB
:103E9000480BA04627E005A80121FFF701FC830796
:103EA00004D000F00F00022805D1EFE70028EDD084
:103EB0000379392BEAD105A8FFF7EBFB05A8FFF73B
:103EC000E8FB05A84946082200238CE03BF8023DA8
:103ED00003F47041B1F5805F08D1DBB2072B02D14A
:103EE000013408F10108BB45F0D108E005A82146DE
:103EF000FFF7D6FB08B108F101080134F3E7B8F188
:103F0000010F12D11AF0400F0FD000263746A642FB
:103F100005A806D0FFF7BDFB0136002818BF0746ED
:103F2000F5E73946FFF7F9FB08E71AF0800F56D09E
:103F300005A80021FFF7F1FB013450E0BBF1000FB1
:103F400024D0B8F1020F04D1012B3FF44BAF002273
:103F500034E0012B3FF446AF13F001022ED0B8F14C
:103F6000030F7FF477AF012228E095F84010C4F3E7
:103F70000B04A14203F1010413D11AB905A831467B
:103F8000FFF70AFC2846FFF769F823460AF001020A
:103F90001A4037F8124004F47041B1F5805FE4D064
:103FA00001E02346CDE705A8494632460133FFF735
:103FB000CBFB05A82146FFF7E8FBC1E61AF0010F8D
:103FC00003F1FF3406D0798801F47041B1F5805FC8
:103FD00008BF5C08012C02D1002A3FF4AFAE05A84F
:103FE000494632462346FFF787FCA7E6586708088C
:103FF000D66A0808F7650808B4880808086708083A
:104000000FA809F0E1FE0E9850B141682246083130
:10401000FCF748F90E9B5A681A600D9A5A600D9386
:1040200095F84030002B7FF415AF099B002B3FF42F
:1040300011AF0A9B07981B680C93FCF735F90A9897
:10404000FCF732F92846FFF711FB0CAB93E80300AD
:10405000029B83E80300184613B0BDE8F08F022BE3
:1040600007BF07480749084808490CF0DDF82968E8
:10407000AA6B044600230CF0A3F92046FCF7C8F80D
:10408000B48808081A670808588A080848670808A2
:1040900010B5406820B14468FCF706F92046F9E7FE
:1040A00010BD00002DE9F041054630200E46904637
:1040B0001F46FCF7EAF8072D04460570C660A0F815
:1040C000148001D0012D02D1B3681B0901E0084B17
:1040D0005B5DE38207F0E2FF0423206167832385B1
:1040E0002020FCF7B9F8E0622046BDE8F08100BF6F
:1040F000856B080810B50446C06AFCF7D5F8204661
:10410000BDE81040FCF7D0B830B5448D0022A24283
:1041100007D2C36A03EBC2035D688D4202D001324D
:10412000F5E70023184630BD70B504460D46164627
:10413000FFF7EAFFC0B9218D638D8B4208D30631AA
:10414000E06AC900FCF7A3F8238DE06206332385FB
:10415000638DE26A591C02EBC300618502F833608B
:10416000002343704380456070BD43680BB118461F
:10417000FBE7FFF7C9BFF8B5436805460F463BB9F3
:10418000F8BD7E6818463146FFF7BEFF234618B9D2
:104190005C68002CF5D116E00378033B022B12D8A3
:1041A00005233B706C68204631460022FFF7BCFFB8
:1041B00003781BB9052303706468F4E7032B02D16D
:1041C00004230370F8BDF8BD436A5B8B012B1EBF4F
:1041D0000369C91801617047C36A10B50446DB6FF3
:1041E000806A9847A38B626A0133D18C9BB2994253
:1041F000A38338BFD38410BD838B10B5013B838369
:10420000C36A0446D3F88430806A98472046012167
:10421000BDE81040FFF7D8BF2DE9F04180461F46AA
:10422000B9B111F003050FD14868C3B293420BD165
:10423000060A0C1DB54205DA404654F8041FB8477B
:104240000135F7E7BDE8F08140463B46BDE8F04167
:104250001847BDE8F0812DE9F74FB3F1000AC2BF5E
:104260000B8B43F008030B830D46436A2A84914667
:104270001A8B42F030021A831B7804465BB9E36A5A
:10428000A06AD3F8B46029464A465346B44603B000
:10429000BDE8F04F60470026B046636A5A8D9642EB
:1042A00025DADB6A03EBC60B13F83630043B012B2F
:1042B0001BD800276B8D9F4217DAEB6A03EBC7020E
:1042C00013F83730052B0ED1DBF8041053689942F0
:1042D00009D1E36AA06AD3F814C0BBF80220002316
:1042E000E04708F101080137E4E70136D5E7B8F106
:1042F000000FC4D0E36ACDF800A0D3F8B860A06A7C
:10430000294642464B46B04703B0BDE8F08F000057
:104310002DE9F0410446884600218579878AC68ABE
:1043200081718182C18211461A46104BFFF774FFDA
:10433000A368C3B9E18A51B1A28A42B9E36AA06A0B
:10434000D3F8A0309847E36AA06A5B6C9847204690
:104350004146E28AA38AFFF77EFF003518BF012598
:10436000A571A782E682BDE8F08100BFA9590008C7
:104370008968024B9B22FFF74FBF00BF21670008EF
:104380008968024B6A22FFF747BF00BF0946000851
:10439000C36A10B50446D3F88830806A0021984774
:1043A000E36AA06A5B6B0E219847E36AA06AD3F8C0
:1043B000CC300121984720460321BDE81040FFF78B
:1043C00003BF38B5C36A04469B6C806A00229847D5
:1043D000E36AA06AD3F8C05000210B460A46A847FA
:1043E0002046BDE83840FFF7D3BFC36A89685B6DDC
:1043F000806A090900221847C36A89681B6C806AB1
:10440000184710B50446084611462268FFF74AFED1
:10441000636A436000238360236A0BB9206210BD86
:104420009A680AB11346FBE7986010BD70B54379EE
:10443000012B05460C4606D1436A022122465B8BBE
:10444000FFF7DFFF206128462169A2684B23BDE802
:104450007040FFF75DBF70B513464279012A0646EA
:104460000C4604D107212246FFF7CBFFA061A569C6
:10447000E268304629464323FFF74AFFE88A70BDC9
:1044800010B54279012A04460B4604D1406ABDE8C2
:104490001040FFF749BEC16A626A806A1431BDE804
:1044A000104002F037BF0246407901280B4602D186
:1044B000506A02F021BFD16A906A526A1C3102F040
:1044C00029BF436A10B55A8B0446FFF7C4FF014663
:1044D0002046BDE81040FFF7E6BF024640790128BC
:1044E0000B4602D1506A02F007BFD16A906A526A45
:1044F000243102F00FBF2DE9F04F87B0054600AF21
:104500000C4609B9012114E011F003060AD10B7918
:10451000672B08D1CB681B0913608C68002CF1D085
:10452000012600E0002604F00F03022B08D1210928
:1045300006B91160EB6AA86A1B6B002298475FE01E
:1045400016B9A3681B091360A2464FF000095AF878
:10455000043F4FEA132808F1FF3B5346C1450ADAEE
:1045600053F8040FFB600009FCF77CFD09F1010919
:104570008344FB68F2E70BF10E0323F00703ADEB76
:10458000030DEC46E9460023434520DA002BC4BF67
:104590002E2289F800205AF8040FC7F804C007F14A
:1045A00014014FEA1010C8BF09F10109BB60FCF704
:1045B00063FD7B69FB6001461A4648461BF022FFFB
:1045C000FB68D7F804C09944BB680133DCE759465F
:1045D0006046FCF79DFCEB6A01461B6BA86A002253
:1045E00098476EB108340126464509DAEB6A54F85B
:1045F000041F5B6DA86A0909002298470136F3E79A
:104600001C37BD46BDE8F08FC36A37B504460D467A
:104610009B6B806A00219847E36AA06A5B6B0E215E
:1046200098472046294601AAFFF765FF20460199D1
:10463000FFF739FF03B030BD036823B919B18B0709
:1046400004BF0B680360704738B5836804460D46A5
:104650005BB9114605480BF0E7FD2946A06004F15F
:104660000C00BDE83840FFF7E7BF38BD588A08089E
:104670002DE9F04F04460D4662712B786162072BDD
:104680004FF000018DB01646016101D08D4A37E030
:10469000012A06D9436B006B1B68114604F108021E
:1046A00098476379D5F80C80032B10D143210BAACE
:1046B00008F10C00FFF704FB636B0B9A9B68014643
:1046C000206B9847A368A883002B40F0F480D8F8AB
:1046D0001010E1B101F00F05022D14D10B095E2B72
:1046E00018D003D83E2B09D1012513E0752B10D02B
:1046F00040F67E42934201D103250BE0724A2046E8
:10470000FFF7A2FFDAE02046704AFFF79DFF02257F
:1047100000E000250CA8D8F8143040F80C3D192111
:104720000AAAFFF7CDFA4FF000090590059B9945BD
:1047300080F2A6800A9B53F829100B79082B4FEAC8
:10474000890B00F09A80052B02D02046604AD7E7FB
:10475000CB68002BF9D18B681A792B2AF5D19F6889
:1047600007F00F02022AF0D1D3F80CA0BAF1000F23
:10477000EBD01AF0030FE8D19AF804302F2BE4D1D4
:104780000BAA0AF10800A321FFF79AFA3F0940F6A5
:1047900075129742034621D1012805D00A9B4D4A44
:1047A00053F80B102046ABE70B9A136803F00F0386
:1047B000022BF3D12169012E01F10103236158D9A4
:1047C000636B1268DB68206B12099847002850D190
:1047D0000A9B414A53F80B10204691E7B7F5C36F87
:1047E00012D1012805D00A9B3C4A53F80B102046F1
:1047F00086E70B9B1968CF07F5D5012E39D9206BB9
:10480000491003F0B6FA34E040F21372974226D111
:10481000012805DC0A9B324A53F80B1020466FE74B
:104820000B9A1268D007F5D5012E22D952100692A4
:1048300001279F421DD00B9A52F82720D10705D49B
:104840000A9B284A53F80B10204659E7206B06991B
:104850000793521003F094FA0137079BE9E7012E02
:1048600007D9626B206BD2F810C039461A460B9BF1
:10487000E047A3680BB1D0461DE009F1010955E7F7
:104880006379012B15D9636B206B5B6829469847C8
:104890006379042B0DD1626A236B00210091908B08
:1048A0000190029103951069DA689B68052107F071
:1048B0000CFCA36813B1D8F80030E3600DB0BDE87C
:1048C000F08F00BF8C6B08080BB30908B06B0808A9
:1048D000D86B0808FB6B0808176C0808276C0808D9
:1048E000436C0808686C0808014AFFF7ADBE00BFBA
:1048F0008A6C08080B79092B70B50CBF058B458BAA
:104900004FF6FF739D42044602D1064AFFF79CFE14
:10491000E36AA68BE28BA06A9B6F2946B21ABDE8B8
:1049200070401847A76C08082DE9F3418D6805F021
:104930000F030E2B04460E4605D005B3AB071ED160
:104940002B79642B02D10095002504E0612B16D150
:10495000AB680093ED68642101AA6846FFF7B0F9DF
:104960000023019A194683420ADA52F8237040F272
:10497000AE5E77450CBF013103310133F3E700210F
:10498000F26840F2FE339A4224D1636A1F782FB155
:1049900020463146314AFFF757FE5CE0E36AA06AE1
:1049A0009B6B9847E36AA06ADB6B05219847E36A33
:1049B000A06AD3F8A0303A460121984720462946FC
:1049C00001AAFFF798FDE36AA06A1B6B3946022231
:1049D000984740E0E36AA06A9B6B984706F10C0099
:1049E00069216A46FFF76CF900260746BE42E36A72
:1049F00009DA009ADB6B52F82620A06A916809094F
:104A000098470136F2E7D3F8A030A06A3946002271
:104A100098472946204601AAFFF76DFD0025BD42B3
:104A2000E36A15DA009AA06A52F825801B6BD8F861
:104A300008603609314601229847D8F80C10204604
:104A400009B9314600E00909FFF72DFD0135E6E718
:104A50001B6EA06A984702B0BDE8F081C76C0808D9
:104A600038B50546A9B101F00F03022B0CD10C0992
:104A7000204609F089F800280CDA07480749224641
:104A80000BF002FCA86002E0054AFFF7DDFD002004
:104A900038BD084638BD00BF00870808E46C080828
:104AA000B76B08082DE9F8430446406A9046028B2C
:104AB00002F002091FFA89F60D461EB1204629466A
:104AC000354A4DE001F00F0102290DD1A2792909E3
:104AD00022B1C38B0133C383B14603E0838B01331F
:104AE00083839146012631E029794145A9460BD1BE
:104AF000A968A37909091BB1C38B0133C383F1E70B
:104B0000838B01338383EDE7994219D1A279002A7F
:104B1000D4D10123A371A96800293BD001F00F0370
:104B2000022B18BF8946038B18BFD9F8081043F031
:104B30000403038306BF090991460909032605E01A
:104B4000A96842F0020209090283052611B3002276
:104B5000FFF7EAFA0378074633B1104A20462946A0
:104B6000BDE8F843FFF770BD032303704670636A26
:104B70005B8B032B0ED1B8F1450F0BD1B9F1000FB0
:104B800008D02046D9F80C10FFF76AFF7B7843EA7B
:104B900000107870BDE8F88348670808F66C0808CC
:104BA0004D224E23FFF77EBF45224623FFF77ABFF3
:104BB00037B504460D46002943D0CA0704D5C36A59
:104BC000806A9B6B49103BE08B072ED005F00F05E8
:104BD000062D4FEA111106D00A2D08D0022D1CD146
:104BE000FFF74EFC2DE0C36A806ADB6B28E0437957
:104BF000042B04D0C36A14491B6C806A20E0084669
:104C000001A9FCF739FAE36A0199A46A1D6C0EF058
:104C1000A5FF01462046A84713E0042911D0C36A26
:104C2000806A5B6BC9B298470BE0C36A09681B696D
:104C3000806A98472A79054B53F822302046294646
:104C4000984703B030BD00BFB4950808746F0808DA
:104C50002DE9F0470D46A9070446164611D005F088
:104C60000F03022B40F0BE8029090AB1022A04D1A9
:104C70002046BDE8F047FFF716BCBDE8F047FFF758
:104C8000FFBB6F68FBB22C2B7BD004D8062B71D0F6
:104C90002B2B05D0A6E02D2B77D09B2B6AD0A1E043
:104CA000022A02D0A968FFF783FFEF68002F00F007
:104CB000998017F0030940F095807B68DAB28C2A5E
:104CC000B84616D1022E4FEA132804D108F1010884
:104CD00057F828800DE007F1040A08F1FF339945E1
:104CE000F4DA20465AF8041FFFF762FF09F10109C0
:104CF000F3E798F80430302B1DD1022E05D1E36A7A
:104D0000A06A9B6E9847E36A11E02046D8F8081025
:104D1000FFF74EFF012EE36A09D1DB6DA06A9847C9
:104D2000E36AA06A1B6D0021BDE8F04718471B6DC0
:104D3000A06A0121F8E7312B54D1012EE36A0AD190
:104D40009B6DA06A9847E36AD8F808105B6DA06A6B
:104D5000090900220BE0022E02D15B6EA06A98477F
:104D6000E36AD8F808105B6DA06A09090122BDE862
:104D7000F0471847B6BB204631463A0A05F108030A
:104D80002CE0AB6873B36ABB0DE05ABBA96809B9E4
:104D90000B4623E08B0703D10A79902A0B4602D0F9
:104DA000204600220AE0DE68A6B116F0030211D107
:104DB0007768F9B2932903D19968204613460DE02C
:104DC000942905D1996820463A0A06F1080305E0BE
:104DD000AB2907D02046002102220833BDE8F04766
:104DE00000F00AB820462946024ABDE8F047FFF71E
:104DF0002BBC00BF0B6D08082DE9F84F0C1C18BF29
:104E000001240646904699460F4664B111F0030509
:104E100009D10B79212B06D1C36A806AD3F8B0304F
:104E20002946984701E04FF0FF3508F1FF3BA9EB19
:104E30008409A246BBF1FF3F1DD059F82A10A9B141
:104E40008A0713D10B79212B10D1013508D1F36AD0
:104E5000B06AD3F8B03051465A469847554605E0F7
:104E60003046194ABDE8F84FFFF7EEBB0BF1FF3BA8
:104E70000AF1010ADEE76B1CA04407D1F36AB06AAD
:104E8000D3F8AC304146984734B90AE04CB11DB96B
:104E90003046B9682A4602E0304639460022FFF71C
:104EA000D7FE44450ED0AC4209BF59F8243059F81A
:104EB00024109968304618BF30460022FFF7C8FE1C
:104EC0000134EEE7BDE8F88F266D08082DE9F14FB3
:104ED00004460D4616461F462846FEF7CDFC002820
:104EE00056D12846FEF7D6FC002853D1002D57D0C6
:104EF000AB0755D16B684FEA1328DBB21D2B04D1E9
:104F00003EB104354FF000092CE01E2B36D1002EA7
:104F1000F7D0D4F8109009F10103236105F1040BD7
:104F20004FF0000A08F1FF339A450ADA20465BF891
:104F3000041F86F001024B46FFF7C8FF0AF1010A81
:104F4000F0E708F10108204655F828103B463246A4
:104F5000FFF7BCFFE36AA06ADB6A494601B0BDE81F
:104F6000F04F1847C14528DA204655F8041F32464D
:104F70003B46FFF7ABFF09F10109F3E71F2B03D114
:104F8000AD6886F00106A7E72C2B09D1AB680BB9F9
:104F90009EB900E08EB1E36AA06ADB6E3946DDE7B8
:104FA00020462946FFF704FEE36AA06A1B6F3146DC
:104FB0003A4601B0BDE8F04F184701B0BDE8F08FA8
:104FC0002DE9F04706691F46B31C0361C36A044616
:104FD0000D46DB6A806A314691469847E36AA06ACB
:104FE000D3F88C3006F1010841469847A96820465D
:104FF0000022FFF72DFE2D69EDB949462046FFF747
:10500000D7FD636A1978E36A06290DD1D3F8CC304D
:10501000A06A2946984720460121FFF7D5F8E36AA0
:10502000A06A1B6E984720E0BA00D3F8A830A06AA7
:105030000532984719E02B79AC2B204606D1A96898
:1050400000223346FFF742FFED68D5E7E968FFF736
:10505000AFFDE36AA06AD3F8883001219847204663
:1050600029464A467B1CFFF7ABFFE36AA06ADB6E6A
:1050700031469847E36AA06ADB6A41469847E36A8B
:10508000A06AD3F89030BDE8F04718472DE9F04109
:10509000C36A427104460D46002661621B680661C0
:1050A0001146806A2A46984720460621FFF78CF869
:1050B0006379012B04BFAE84EE84EE684EB1B20773
:1050C00007D133793C2B04D12046B168FFF770FD3E
:1050D000D3E02B7823B920463146FFF769FD98E0ED
:1050E000072B21D16379012B12D10023A371204614
:1050F000674BF1684322FFF78FF86B8B032B07D1C7
:1051000020463169FFF7ACFC2B8B43EA80102883E3
:1051100020467169FFF74CFDE36AA06A9B689847D7
:10512000002840F0AF8074E0022B1CD1E36AA06A33
:105130001B69316898476379012B07D10023A3715C
:105140002046B168534B4B22FFF766F82046F168C2
:10515000FFF72EFD2B8BDB0740F18F80E36AA06AFF
:105160001B6E984755E0033B032B677954D8012FFA
:10517000D6F80C8005D1606A39460322FEF7D4FFC9
:10518000AF83E36AA06A1B69316898472B78032BC9
:1051900006D1E36AA06AD3F8A0300021012210E012
:1051A000042B06D1E36AA06AD3F8A03000210222C2
:1051B00007E0052B06D1E36AA06AD3F8A0300021EE
:1051C000032298472B78062B10D1E36AA06A5B6C08
:1051D000984720460121FFF753F9E36AA06A5B6C08
:1051E0009847E36AA06A5B6C984709E02046012172
:1051F000FFF746F9E36AA06AD3F88830012198479F
:10520000002320464146B268FFF7DAFE2B78062BD2
:1052100033D1E36A5B6B26E0012F04D128460A21D3
:105220000322FEF781FF20461721FFF729F92046C8
:105230001621FFF738F9E36AB168DB6BA06A090948
:10524000984720461A21FFF72EF920463169FFF7CB
:10525000AFFC28460A21FEF757FF0278032A0346CF
:10526000E26A04D1536BA06A0E21984705E05569A4
:10527000A06A5A880A210023A847E36AA06AD3F8E3
:10528000C4309847E36AA06A5B68BDE8F0411847FC
:10529000A94B0008A14B000838B5436A1B78072BBF
:1052A00004460A4606D0022B04D0174ABDE838400F
:1052B000FFF7CAB9956855B9E36AA06A5B6B0E211E
:1052C0009847E36AA06AD3F8CC30294615E0AB07CB
:1052D00020460AD12B79AE2B07D1A968FFF768FCCD
:1052E0002046BDE83840FFF753B82946FFF760FC79
:1052F000E36AA06AD3F8CC30002198472046012108
:10530000BDE83840FEF760BF406D08082DE9F04168
:1053100016464279CD68012A04460B4606D1476AF3
:105320001A4631467B8BFFF76CF8686100222046F5
:1053300069691346FEF78FFF2046E968FFF738FCDE
:10534000062E05D1E36AA06AD3F888300021984779
:10535000E36AA06AD3F8BC500022AC460121134690
:10536000BDE8F041604700002DE9F04F87B00446EA
:1053700006A8019240F80C1D05AAA3211E46FEF7BF
:105380009FFC4FF0000A8346D046D146554657460B
:10539000DA4554DA059B53F82A30002B3FD09907A1
:1053A0003DD11A79A52A09D1EA0703D52046194625
:1053B000384A3BE045F0010599463DE0A62A09D16F
:1053C000A80703D520461946334A2FE045F00205C9
:1053D000984631E0A72A22D1DA6822B1910702D19A
:1053E0001279AB2A15D0996801F00F02022A03D076
:1053F00020461946294A19E0E26AA06AD26B029354
:1054000009099047029B2046D968FFF7D1FB013775
:1054100012E0204619460622FFF778FF0BE02046EF
:1054200019460DB11E4A01E01FB11E4AFFF70CF9E3
:105430002DE0FFF7BDFB01360AF1010AA8E7CDB167
:10544000B9F1000F04D1E36AA06A5B6C984704E0ED
:105450002046D9F80810FFF7ABFBB8F1000F04D1D4
:10546000E36AA06A5B6C984704E02046D8F808100D
:10547000FFF79EFB019AE36A12B1D3F8C0C001E0C6
:10548000D3F8BCC0A06A31463A462B46E04707B085
:10549000BDE8F08F596D0808706D0808886D080820
:1054A000A96D0808C46D080870B50D464179012939
:1054B0000446134603D12A46FEF7A3FF6861E36A58
:1054C000A06ADB6C98476E6900221346204631467D
:1054D000FEF7C1FEE36AF18ADB6BA06A9847E968D0
:1054E00029B18B0703D10B79A22B08BF00212046DD
:1054F00000220223FFF738FFF08A70BD436A10B51F
:105500005A8B0446FFF7D0FF01462046BDE8104005
:10551000FEF7C9BF002289681346FFF725BF38B5DB
:105520000C460546C968FFF743FB2846A168BDE85D
:105530003840FFF73DBB0B79332B70B504460D4661
:1055400004D18968FFF734FBED6804E0C36A806A20
:105550005B6B0E219847AD682DB9E36AA06A5B6B5F
:105560000E21984721E0AB071BD12B79982B06D150
:10557000E36AA06A5B6B0E219847A96807E0992B44
:1055800020460FD1A968FFF713FBEB68996861B15A
:105590002046FFF70DFBE36AA06AD3F8A030032191
:1055A00008E020462946FFF703FBE36AA06AD3F828
:1055B000A03002210422BDE87040184710B504460F
:1055C0008968FFF7F5FAE36AA06A1B6D0021BDE860
:1055D000104018472DE9F7438D68044616464DB92B
:1055E000002A00F09E80C36A806AD3F8A030294662
:1055F000022295E0AB0740F089802B79362B11D140
:1056000032B1C36A806AD3F8A030012102229847E0
:1056100020462946FFF7CCFAE36AA06AD3F8A43003
:1056200098477EE09D2B71D1EB681A79A02A5DD155
:10563000A12103F1080001AAFEF742FBA9688046F8
:10564000C9B18F0717D10B79362B14D13EB1E36A5C
:10565000A06AD3F8A03008F1010102229847204641
:10566000A968FFF7A5FAE36AA06AD3F8A4309847BF
:105670004FF0010904E02046FFF79AFA4FF00009C5
:105680000027474528DA019B53F8271039B18E07C8
:1056900007D10E79A6F136004642464102E00E4699
:1056A00000E000262046FFF783FAB9F1000F0AD088
:1056B0001EB9204629461C4A09E0E36AA06AD3F8CD
:1056C000A430984706E02EB1184A20462946FEF736
:1056D000BBFF26E00137D4E7B9F1000F21D1E36A1F
:1056E000A06AD3F8A03008F1010118E0AB683BB123
:1056F0009A0705D11B79362B02D12946042202E0F4
:10570000204629460522FFF701FE0AE020462946E9
:10571000FFF74EFAE36AA06AD3F8A0300121032212
:10572000984703B0BDE8F083E66D0808036E0808EB
:105730000122FFF74FBF2DE9F041074614460D4601
:1057400011B1FFF735FA01257CB154F8046F4FF021
:105750000008360AB04507DA384654F8041FFFF748
:1057600027FA08F10108F5E73544FB6AB86AD3F86F
:10577000A03029460022BDE8F04118470A46002122
:10578000FFF7D9BF70B50D46C9680446FFF710FA98
:10579000A968E36AA06AD3F89830C1F307113129E8
:1057A0001ABF3D39C9B20221BDE870401847F8B5AB
:1057B0004D680C4689680746FFF7FAF92D0A103440
:1057C00000260236AE4204F108040FDA384654F8D7
:1057D000081CFFF7EDF954F80C1CFB6AB86AD3F803
:1057E0009C3009092239C9B29847EAE7F8BD2DE98A
:1057F000F0410C464B6854F8081FA3F10C07804693
:105800001D0AFFF7D5F9FFB20126AE420EDA404677
:1058100054F8041FFFF7CCF9D8F82C30D8F828003A
:10582000D3F89C30394698470136EEE7BDE8F08161
:105830002DE9F0474E680D46360A89680446FFF7A1
:10584000B7F9032ED4BF4FF000094FF00109B9F1A9
:10585000000F05D0D4F8108008F10103236100E0A7
:10586000C84601277B1CB3423DDA2046296902372E
:10587000FFF79EF9B74207DAE36AA06A9B6D984783
:10588000E36AA06A9B6E9847EB6803F00F020E2A4A
:10589000E26A0AD1C3F30713242B1ABF323BD9B2F1
:1058A0000621D2F89C30A06A12E01979832904D12C
:1058B000D2F89C30A06A32210AE09B6823B9D2F862
:1058C0009C30A06A072103E0D2F89C30A06A332103
:1058D0009847B74205DAE36AA06A5B6F0021424647
:1058E00098470835BEE7B9F1000F20D02569A06AB6
:1058F0006B1C2361E36A2946DB6E9847E36AA06A62
:10590000DB6A41469847E36AA06ADB680121984751
:10591000E36AA06A5B6E9847E36AA06A1B6E9847C9
:10592000E36AA06ADB6A2946BDE8F0471847BDE88C
:10593000F08710B504468968FFF73AF9E36AA06A70
:10594000D3F898300321BDE8104018472DE9F047FF
:105950000F46D0F8108057F8045F5FFA85F9A9F177
:105960001D03D3F1000949EB030908F101030446C3
:1059700003612D0A0026AE420EDA204657F8041FB6
:105980000136FFF715F9AE42F5DAE36AA06A5B6FFC
:10599000494642469847EEE7E36AA06ADB6A414619
:1059A000BDE8F0471847000001F00F03022B70B567
:1059B000044610D04B6803F0F702462A02D10123B7
:1059C000837170BD472A45D0DBB2452B0CBF0D69F2
:1059D000CD688E685DB9A379002B3BD1E38A002B9B
:1059E00038D020461C4ABDE87040FEF72DBE8379B2
:1059F00043B3838A01339BB2012B838212D1C18AC4
:105A0000C36A29B1D3F8A030806A0022984702E027
:105A10005B6C806A9847E36AA06AD3F8A0300021E3
:105A20000222984720462946FFF7C2F8E36AA06A97
:105A3000DB6B31099847E36AA06AD3F8A430BDE86C
:105A400070401847C38A01332946C382BDE87040BD
:105A5000FFF7AEB870BD00BF226E08082DE9F04117
:105A60000569CF68AB1C03618846044600222B46BB
:105A7000B968FFF72BFA2046D8F80810FFF798F816
:105A8000E36AA06ADB6E6E1C31469847E36AA06A3F
:105A9000DB6A29469847E36AA06ADB684FF0FF316A
:105AA00098472046F968FFF783F8E36AA06ADB6A43
:105AB0003146BDE8F04118472DE9F04704469046CD
:105AC0001F46894621B91946BDE8F047FFF770B86F
:105AD0000669731C036115689DB115F0030A10D1A6
